:040000000C94480014
:100004000C9400000C9400000C9400000C9400006C
:100014000C9400000C9400000C9400000C9400005C
:100024000C9400000C9400000C9400000C94BE008E
:100034000C9475000C9400000C94A7000C94000020
:100044000C9400000C9400000C9400000C9400002C
:100054001027E80364000A000100001000011000EA
:1000640001000000000000000000000001002D4E0F
:10007400414E00494E46000001000200660008009F
:10008400040068000100700270000000F894EE277C
:10009400ECBBF1E0FBBFEBBFE5BF8DE0A2E0BB270B
:1000A400ED938A95E9F780E098E0A0E6ED93019757
:1000B400E9F7ECE7F0E085919591009761F0A5915F
:1000C400B59105901590BF01F00105900D9201972F
:1000D400E1F7FB01F0CFEFE5EDBFE8E0EEBFC0E6EE
:1000E400D2E00C94C200EA93FA93EFB7EA931A931E
:1000F4000A931BB10CB1E12FEC7189F4E42D439404
:10010400F0E0E05AFD4F0083E8E0E41509F44424EC
:100114006394E8E0E61519F46624689420F80991DC
:10012400199125C01A936620F1F3E72D7394F0E03A
:10013400E05AFD4F1081E8E0E71509F47724F894BC
:100144006A947894E12F19910895EA93FA93EFB79A
:10015400EA93BB2061F0BA94E82D8394F0E0E85967
:10016400FD4FE081ECB9E8E0E81509F48824E99151
:10017400EFBFF991E99118951A931FB11991189548
:10018400E0E0EABBEBBBE0EBE7BBE0E0E8BBE4BBF1
:10019400E5BBE1BBE2BBE3BFE2BFECBFEFBDEEBD3D
:1001A400EDBDECBDE7BDE6BDEBBDEABDE9BDE8BD17
:1001B400E2BDE5BDE4BDE3BDE9BFE5BFE4BFEBB926
:1001C400E8EDEAB9E6E8E0BDE0E0E0BDE9E1E9B97F
:1001D400E0E8E8B9E0E0E0BFE6B9E0EDEDB9E0E081
:1001E400EEB9EEB1EFB1E0E0E6BF7894E0E0E615F9
:1001F40028F498DF5E2EA52D0E940201F7CFFFCFD1
:10020400AA93E881EFB9779BFECFEFB121960895C9
:00000001FF
